{
  "_format": "hh-sol-artifact-1",
  "contractName": "LockToken",
  "sourceName": "contracts/Locked.sol",
  "abi": [
    {
      "inputs": [],
      "stateMutability": "nonpayable",
      "type": "constructor"
    },
    {
      "anonymous": false,
      "inputs": [
        {
          "indexed": true,
          "internalType": "address",
          "name": "owner",
          "type": "address"
        },
        {
          "indexed": true,
          "internalType": "address",
          "name": "spender",
          "type": "address"
        },
        {
          "indexed": false,
          "internalType": "uint256",
          "name": "value",
          "type": "uint256"
        }
      ],
      "name": "Approval",
      "type": "event"
    },
    {
      "anonymous": false,
      "inputs": [
        {
          "indexed": true,
          "internalType": "address",
          "name": "previousOwner",
          "type": "address"
        },
        {
          "indexed": true,
          "internalType": "address",
          "name": "newOwner",
          "type": "address"
        }
      ],
      "name": "OwnershipTransferred",
      "type": "event"
    },
    {
      "anonymous": false,
      "inputs": [
        {
          "indexed": false,
          "internalType": "address",
          "name": "account",
          "type": "address"
        }
      ],
      "name": "Paused",
      "type": "event"
    },
    {
      "anonymous": false,
      "inputs": [
        {
          "indexed": true,
          "internalType": "address",
          "name": "from",
          "type": "address"
        },
        {
          "indexed": true,
          "internalType": "address",
          "name": "to",
          "type": "address"
        },
        {
          "indexed": false,
          "internalType": "uint256",
          "name": "value",
          "type": "uint256"
        }
      ],
      "name": "Transfer",
      "type": "event"
    },
    {
      "anonymous": false,
      "inputs": [
        {
          "indexed": false,
          "internalType": "address",
          "name": "account",
          "type": "address"
        }
      ],
      "name": "Unpaused",
      "type": "event"
    },
    {
      "inputs": [
        {
          "internalType": "address",
          "name": "owner",
          "type": "address"
        },
        {
          "internalType": "address",
          "name": "spender",
          "type": "address"
        }
      ],
      "name": "allowance",
      "outputs": [
        {
          "internalType": "uint256",
          "name": "",
          "type": "uint256"
        }
      ],
      "stateMutability": "view",
      "type": "function"
    },
    {
      "inputs": [
        {
          "internalType": "address",
          "name": "spender",
          "type": "address"
        },
        {
          "internalType": "uint256",
          "name": "amount",
          "type": "uint256"
        }
      ],
      "name": "approve",
      "outputs": [
        {
          "internalType": "bool",
          "name": "",
          "type": "bool"
        }
      ],
      "stateMutability": "nonpayable",
      "type": "function"
    },
    {
      "inputs": [
        {
          "internalType": "address",
          "name": "account",
          "type": "address"
        }
      ],
      "name": "balanceOf",
      "outputs": [
        {
          "internalType": "uint256",
          "name": "",
          "type": "uint256"
        }
      ],
      "stateMutability": "view",
      "type": "function"
    },
    {
      "inputs": [
        {
          "internalType": "uint256",
          "name": "amount",
          "type": "uint256"
        }
      ],
      "name": "burn",
      "outputs": [],
      "stateMutability": "nonpayable",
      "type": "function"
    },
    {
      "inputs": [
        {
          "internalType": "address",
          "name": "account",
          "type": "address"
        },
        {
          "internalType": "uint256",
          "name": "amount",
          "type": "uint256"
        }
      ],
      "name": "burn",
      "outputs": [],
      "stateMutability": "nonpayable",
      "type": "function"
    },
    {
      "inputs": [
        {
          "internalType": "address",
          "name": "account",
          "type": "address"
        },
        {
          "internalType": "uint256",
          "name": "amount",
          "type": "uint256"
        }
      ],
      "name": "burnFrom",
      "outputs": [],
      "stateMutability": "nonpayable",
      "type": "function"
    },
    {
      "inputs": [],
      "name": "decimals",
      "outputs": [
        {
          "internalType": "uint8",
          "name": "",
          "type": "uint8"
        }
      ],
      "stateMutability": "view",
      "type": "function"
    },
    {
      "inputs": [
        {
          "internalType": "address",
          "name": "spender",
          "type": "address"
        },
        {
          "internalType": "uint256",
          "name": "subtractedValue",
          "type": "uint256"
        }
      ],
      "name": "decreaseAllowance",
      "outputs": [
        {
          "internalType": "bool",
          "name": "",
          "type": "bool"
        }
      ],
      "stateMutability": "nonpayable",
      "type": "function"
    },
    {
      "inputs": [
        {
          "internalType": "address",
          "name": "user",
          "type": "address"
        }
      ],
      "name": "getUnlockedAmount",
      "outputs": [
        {
          "internalType": "uint256",
          "name": "",
          "type": "uint256"
        }
      ],
      "stateMutability": "view",
      "type": "function"
    },
    {
      "inputs": [
        {
          "internalType": "address",
          "name": "spender",
          "type": "address"
        },
        {
          "internalType": "uint256",
          "name": "addedValue",
          "type": "uint256"
        }
      ],
      "name": "increaseAllowance",
      "outputs": [
        {
          "internalType": "bool",
          "name": "",
          "type": "bool"
        }
      ],
      "stateMutability": "nonpayable",
      "type": "function"
    },
    {
      "inputs": [
        {
          "internalType": "uint256",
          "name": "amount",
          "type": "uint256"
        },
        {
          "internalType": "uint256",
          "name": "unlockBlockNumber",
          "type": "uint256"
        }
      ],
      "name": "lock",
      "outputs": [],
      "stateMutability": "nonpayable",
      "type": "function"
    },
    {
      "inputs": [
        {
          "internalType": "address",
          "name": "to",
          "type": "address"
        },
        {
          "internalType": "uint256",
          "name": "amount",
          "type": "uint256"
        }
      ],
      "name": "mint",
      "outputs": [],
      "stateMutability": "nonpayable",
      "type": "function"
    },
    {
      "inputs": [],
      "name": "name",
      "outputs": [
        {
          "internalType": "string",
          "name": "",
          "type": "string"
        }
      ],
      "stateMutability": "view",
      "type": "function"
    },
    {
      "inputs": [],
      "name": "owner",
      "outputs": [
        {
          "internalType": "address",
          "name": "",
          "type": "address"
        }
      ],
      "stateMutability": "view",
      "type": "function"
    },
    {
      "inputs": [],
      "name": "pause",
      "outputs": [],
      "stateMutability": "nonpayable",
      "type": "function"
    },
    {
      "inputs": [],
      "name": "paused",
      "outputs": [
        {
          "internalType": "bool",
          "name": "",
          "type": "bool"
        }
      ],
      "stateMutability": "view",
      "type": "function"
    },
    {
      "inputs": [],
      "name": "renounceOwnership",
      "outputs": [],
      "stateMutability": "nonpayable",
      "type": "function"
    },
    {
      "inputs": [],
      "name": "symbol",
      "outputs": [
        {
          "internalType": "string",
          "name": "",
          "type": "string"
        }
      ],
      "stateMutability": "view",
      "type": "function"
    },
    {
      "inputs": [],
      "name": "totalSupply",
      "outputs": [
        {
          "internalType": "uint256",
          "name": "",
          "type": "uint256"
        }
      ],
      "stateMutability": "view",
      "type": "function"
    },
    {
      "inputs": [
        {
          "internalType": "address",
          "name": "to",
          "type": "address"
        },
        {
          "internalType": "uint256",
          "name": "amount",
          "type": "uint256"
        }
      ],
      "name": "transfer",
      "outputs": [
        {
          "internalType": "bool",
          "name": "",
          "type": "bool"
        }
      ],
      "stateMutability": "nonpayable",
      "type": "function"
    },
    {
      "inputs": [
        {
          "internalType": "address",
          "name": "from",
          "type": "address"
        },
        {
          "internalType": "address",
          "name": "to",
          "type": "address"
        },
        {
          "internalType": "uint256",
          "name": "amount",
          "type": "uint256"
        }
      ],
      "name": "transfer",
      "outputs": [],
      "stateMutability": "nonpayable",
      "type": "function"
    },
    {
      "inputs": [
        {
          "internalType": "address",
          "name": "from",
          "type": "address"
        },
        {
          "internalType": "address",
          "name": "to",
          "type": "address"
        },
        {
          "internalType": "uint256",
          "name": "amount",
          "type": "uint256"
        }
      ],
      "name": "transferFrom",
      "outputs": [
        {
          "internalType": "bool",
          "name": "",
          "type": "bool"
        }
      ],
      "stateMutability": "nonpayable",
      "type": "function"
    },
    {
      "inputs": [
        {
          "internalType": "address",
          "name": "newOwner",
          "type": "address"
        }
      ],
      "name": "transferOwnership",
      "outputs": [],
      "stateMutability": "nonpayable",
      "type": "function"
    },
    {
      "inputs": [],
      "name": "unpause",
      "outputs": [],
      "stateMutability": "nonpayable",
      "type": "function"
    }
  ],
  "bytecode": "0x60806040523480156200001157600080fd5b506040518060400160405280600981526020017f4c6f636b546f6b656e00000000000000000000000000000000000000000000008152506040518060400160405280600381526020017f4c544b000000000000000000000000000000000000000000000000000000000081525081600390816200008f91906200042d565b508060049081620000a191906200042d565b5050506000600560006101000a81548160ff021916908315150217905550620000df620000d3620000e560201b60201c565b620000ed60201b60201c565b62000514565b600033905090565b6000600560019054906101000a900473ffffffffffffffffffffffffffffffffffffffff16905081600560016101000a81548173ffffffffffffffffffffffffffffffffffffffff021916908373ffffffffffffffffffffffffffffffffffffffff1602179055508173ffffffffffffffffffffffffffffffffffffffff168173ffffffffffffffffffffffffffffffffffffffff167f8be0079c531659141344cd1fd0a4f28419497f9722a3daafe3b4186f6b6457e060405160405180910390a35050565b600081519050919050565b7f4e487b7100000000000000000000000000000000000000000000000000000000600052604160045260246000fd5b7f4e487b7100000000000000000000000000000000000000000000000000000000600052602260045260246000fd5b600060028204905060018216806200023557607f821691505b6020821081036200024b576200024a620001ed565b5b50919050565b60008190508160005260206000209050919050565b60006020601f8301049050919050565b600082821b905092915050565b600060088302620002b57fffffffffffffffffffffffffffffffffffffffffffffffffffffffffffffffff8262000276565b620002c1868362000276565b95508019841693508086168417925050509392505050565b6000819050919050565b6000819050919050565b60006200030e620003086200030284620002d9565b620002e3565b620002d9565b9050919050565b6000819050919050565b6200032a83620002ed565b62000342620003398262000315565b84845462000283565b825550505050565b600090565b620003596200034a565b620003668184846200031f565b505050565b5b818110156200038e57620003826000826200034f565b6001810190506200036c565b5050565b601f821115620003dd57620003a78162000251565b620003b28462000266565b81016020851015620003c2578190505b620003da620003d18562000266565b8301826200036b565b50505b505050565b600082821c905092915050565b60006200040260001984600802620003e2565b1980831691505092915050565b60006200041d8383620003ef565b9150826002028217905092915050565b6200043882620001b3565b67ffffffffffffffff811115620004545762000453620001be565b5b6200046082546200021c565b6200046d82828562000392565b600060209050601f831160018114620004a5576000841562000490578287015190505b6200049c85826200040f565b8655506200050c565b601f198416620004b58662000251565b60005b82811015620004df57848901518255600182019150602085019450602081019050620004b8565b86831015620004ff5784890151620004fb601f891682620003ef565b8355505b6001600288020188555050505b505050505050565b6128e680620005246000396000f3fe608060405234801561001057600080fd5b50600436106101585760003560e01c806370a08231116100c35780639dc29fac1161007c5780639dc29fac1461038f578063a457c2d7146103ab578063a9059cbb146103db578063beabacc81461040b578063dd62ed3e14610427578063f2fde38b1461045757610158565b806370a08231146102f3578063715018a61461032357806379cc67901461032d5780638456cb59146103495780638da5cb5b1461035357806395d89b411461037157610158565b8063395093511161011557806339509351146102335780633f4ba83a1461026357806340c10f191461026d578063420d4a021461028957806342966c68146102b95780635c975abb146102d557610158565b806306fdde031461015d578063095ea7b31461017b5780631338736f146101ab57806318160ddd146101c757806323b872dd146101e5578063313ce56714610215575b600080fd5b610165610473565b6040516101729190611b65565b60405180910390f35b61019560048036038101906101909190611c20565b610505565b6040516101a29190611c7b565b60405180910390f35b6101c560048036038101906101c09190611c96565b610528565b005b6101cf61065b565b6040516101dc9190611ce5565b60405180910390f35b6101ff60048036038101906101fa9190611d00565b610665565b60405161020c9190611c7b565b60405180910390f35b61021d610818565b60405161022a9190611d6f565b60405180910390f35b61024d60048036038101906102489190611c20565b610821565b60405161025a9190611c7b565b60405180910390f35b61026b610858565b005b61028760048036038101906102829190611c20565b61086a565b005b6102a3600480360381019061029e9190611d8a565b610880565b6040516102b09190611ce5565b60405180910390f35b6102d360048036038101906102ce9190611db7565b6109c9565b005b6102dd6109dd565b6040516102ea9190611c7b565b60405180910390f35b61030d60048036038101906103089190611d8a565b6109f4565b60405161031a9190611ce5565b60405180910390f35b61032b610a3c565b005b61034760048036038101906103429190611c20565b610a50565b005b610351610a70565b005b61035b610a82565b6040516103689190611df3565b60405180910390f35b610379610aac565b6040516103869190611b65565b60405180910390f35b6103a960048036038101906103a49190611c20565b610b3e565b005b6103c560048036038101906103c09190611c20565b610ccf565b6040516103d29190611c7b565b60405180910390f35b6103f560048036038101906103f09190611c20565b610d46565b6040516104029190611c7b565b60405180910390f35b61042560048036038101906104209190611d00565b610d69565b005b610441600480360381019061043c9190611e0e565b610efc565b60405161044e9190611ce5565b60405180910390f35b610471600480360381019061046c9190611d8a565b610f83565b005b60606003805461048290611e7d565b80601f01602080910402602001604051908101604052809291908181526020018280546104ae90611e7d565b80156104fb5780601f106104d0576101008083540402835291602001916104fb565b820191906000526020600020905b8154815290600101906020018083116104de57829003601f168201915b5050505050905090565b600080610510611006565b905061051d81858561100e565b600191505092915050565b600061053333610880565b905082811015610578576040517f08c379a000000000000000000000000000000000000000000000000000000000815260040161056f90611f20565b60405180910390fd5b4382116105ba576040517f08c379a00000000000000000000000000000000000000000000000000000000081526004016105b190611fb2565b60405180910390fd5b6105c2611abb565b8381600001818152505082816020018181525050600760003373ffffffffffffffffffffffffffffffffffffffff1673ffffffffffffffffffffffffffffffffffffffff1681526020019081526020016000208190806001815401808255809150506001900390600052602060002090600202016000909190919091506000820151816000015560208201518160010155505050505050565b6000600254905090565b60003382600080600760008573ffffffffffffffffffffffffffffffffffffffff1673ffffffffffffffffffffffffffffffffffffffff168152602001908152602001600020805480602002602001604051908101604052809291908181526020016000905b82821015610711578382906000526020600020906002020160405180604001604052908160008201548152602001600182015481525050815260200190600101906106cb565b50505050905060005b8151811015610789574382828151811061073757610736611fd2565b5b60200260200101516020015111156107765781818151811061075c5761075b611fd2565b5b602002602001015160000151836107739190612030565b92505b808061078190612064565b91505061071a565b50600082610796866109f4565b6107a091906120ac565b9050838110156107e5576040517f08c379a00000000000000000000000000000000000000000000000000000000081526004016107dc90612152565b60405180910390fd5b60006107ef611006565b90506107fc8a828a6111d7565b6108078a8a8a611263565b600196505050505050509392505050565b60006012905090565b60008061082c611006565b905061084d81858561083e8589610efc565b6108489190612030565b61100e565b600191505092915050565b6108606114d9565b610868611557565b565b6108726114d9565b61087c82826115ba565b5050565b6000806000600760008573ffffffffffffffffffffffffffffffffffffffff1673ffffffffffffffffffffffffffffffffffffffff168152602001908152602001600020805480602002602001604051908101604052809291908181526020016000905b8282101561092a578382906000526020600020906002020160405180604001604052908160008201548152602001600182015481525050815260200190600101906108e4565b505050509050600080600090505b82518110156109a7574383828151811061095557610954611fd2565b5b60200260200101516020015111156109945782818151811061097a57610979611fd2565b5b602002602001015160000151846109919190612030565b93505b808061099f90612064565b915050610938565b50826109b2866109f4565b6109bc91906120ac565b9050809350505050919050565b6109da6109d4611006565b82611710565b50565b6000600560009054906101000a900460ff16905090565b60008060008373ffffffffffffffffffffffffffffffffffffffff1673ffffffffffffffffffffffffffffffffffffffff168152602001908152602001600020549050919050565b610a446114d9565b610a4e60006118dd565b565b610a6282610a5c611006565b836111d7565b610a6c8282611710565b5050565b610a786114d9565b610a806119a3565b565b6000600560019054906101000a900473ffffffffffffffffffffffffffffffffffffffff16905090565b606060048054610abb90611e7d565b80601f0160208091040260200160405190810160405280929190818152602001828054610ae790611e7d565b8015610b345780601f10610b0957610100808354040283529160200191610b34565b820191906000526020600020905b815481529060010190602001808311610b1757829003601f168201915b5050505050905090565b3381600080600760008573ffffffffffffffffffffffffffffffffffffffff1673ffffffffffffffffffffffffffffffffffffffff168152602001908152602001600020805480602002602001604051908101604052809291908181526020016000905b82821015610be857838290600052602060002090600202016040518060400160405290816000820154815260200160018201548152505081526020019060010190610ba2565b50505050905060005b8151811015610c605743828281518110610c0e57610c0d611fd2565b5b6020026020010151602001511115610c4d57818181518110610c3357610c32611fd2565b5b60200260200101516000015183610c4a9190612030565b92505b8080610c5890612064565b915050610bf1565b50600082610c6d866109f4565b610c7791906120ac565b905083811015610cbc576040517f08c379a0000000000000000000000000000000000000000000000000000000008152600401610cb390612152565b60405180910390fd5b610cc68787611710565b50505050505050565b600080610cda611006565b90506000610ce88286610efc565b905083811015610d2d576040517f08c379a0000000000000000000000000000000000000000000000000000000008152600401610d24906121e4565b60405180910390fd5b610d3a828686840361100e565b60019250505092915050565b600080610d51611006565b9050610d5e818585611263565b600191505092915050565b3381600080600760008573ffffffffffffffffffffffffffffffffffffffff1673ffffffffffffffffffffffffffffffffffffffff168152602001908152602001600020805480602002602001604051908101604052809291908181526020016000905b82821015610e1357838290600052602060002090600202016040518060400160405290816000820154815260200160018201548152505081526020019060010190610dcd565b50505050905060005b8151811015610e8b5743828281518110610e3957610e38611fd2565b5b6020026020010151602001511115610e7857818181518110610e5e57610e5d611fd2565b5b60200260200101516000015183610e759190612030565b92505b8080610e8390612064565b915050610e1c565b50600082610e98866109f4565b610ea291906120ac565b905083811015610ee7576040517f08c379a0000000000000000000000000000000000000000000000000000000008152600401610ede90612152565b60405180910390fd5b610ef2888888611263565b5050505050505050565b6000600660008473ffffffffffffffffffffffffffffffffffffffff1673ffffffffffffffffffffffffffffffffffffffff16815260200190815260200160002060008373ffffffffffffffffffffffffffffffffffffffff1673ffffffffffffffffffffffffffffffffffffffff16815260200190815260200160002054905092915050565b610f8b6114d9565b600073ffffffffffffffffffffffffffffffffffffffff168173ffffffffffffffffffffffffffffffffffffffff1603610ffa576040517f08c379a0000000000000000000000000000000000000000000000000000000008152600401610ff190612276565b60405180910390fd5b611003816118dd565b50565b600033905090565b600073ffffffffffffffffffffffffffffffffffffffff168373ffffffffffffffffffffffffffffffffffffffff160361107d576040517f08c379a000000000000000000000000000000000000000000000000000000000815260040161107490612308565b60405180910390fd5b600073ffffffffffffffffffffffffffffffffffffffff168273ffffffffffffffffffffffffffffffffffffffff16036110ec576040517f08c379a00000000000000000000000000000000000000000000000000000000081526004016110e39061239a565b60405180910390fd5b80600160008573ffffffffffffffffffffffffffffffffffffffff1673ffffffffffffffffffffffffffffffffffffffff16815260200190815260200160002060008473ffffffffffffffffffffffffffffffffffffffff1673ffffffffffffffffffffffffffffffffffffffff168152602001908152602001600020819055508173ffffffffffffffffffffffffffffffffffffffff168373ffffffffffffffffffffffffffffffffffffffff167f8c5be1e5ebec7d5bd14f71427d1e84f3dd0314c0f7b2291e5b200ac8c7c3b925836040516111ca9190611ce5565b60405180910390a3505050565b60006111e38484610efc565b90507fffffffffffffffffffffffffffffffffffffffffffffffffffffffffffffffff811461125d578181101561124f576040517f08c379a000000000000000000000000000000000000000000000000000000000815260040161124690612406565b60405180910390fd5b61125c848484840361100e565b5b50505050565b600073ffffffffffffffffffffffffffffffffffffffff168373ffffffffffffffffffffffffffffffffffffffff16036112d2576040517f08c379a00000000000000000000000000000000000000000000000000000000081526004016112c990612498565b60405180910390fd5b600073ffffffffffffffffffffffffffffffffffffffff168273ffffffffffffffffffffffffffffffffffffffff1603611341576040517f08c379a00000000000000000000000000000000000000000000000000000000081526004016113389061252a565b60405180910390fd5b61134c838383611a06565b60008060008573ffffffffffffffffffffffffffffffffffffffff1673ffffffffffffffffffffffffffffffffffffffff168152602001908152602001600020549050818110156113d2576040517f08c379a00000000000000000000000000000000000000000000000000000000081526004016113c9906125bc565b60405180910390fd5b8181036000808673ffffffffffffffffffffffffffffffffffffffff1673ffffffffffffffffffffffffffffffffffffffff16815260200190815260200160002081905550816000808573ffffffffffffffffffffffffffffffffffffffff1673ffffffffffffffffffffffffffffffffffffffff168152602001908152602001600020600082825401925050819055508273ffffffffffffffffffffffffffffffffffffffff168473ffffffffffffffffffffffffffffffffffffffff167fddf252ad1be2c89b69c2b068fc378daa952ba7f163c4a11628f55a4df523b3ef846040516114c09190611ce5565b60405180910390a36114d3848484611a1e565b50505050565b6114e1611006565b73ffffffffffffffffffffffffffffffffffffffff166114ff610a82565b73ffffffffffffffffffffffffffffffffffffffff1614611555576040517f08c379a000000000000000000000000000000000000000000000000000000000815260040161154c90612628565b60405180910390fd5b565b61155f611a23565b6000600560006101000a81548160ff0219169083151502179055507f5db9ee0a495bf2e6ff9c91a7834c1ba4fdd244a5e8aa4e537bd38aeae4b073aa6115a3611006565b6040516115b09190611df3565b60405180910390a1565b600073ffffffffffffffffffffffffffffffffffffffff168273ffffffffffffffffffffffffffffffffffffffff1603611629576040517f08c379a000000000000000000000000000000000000000000000000000000000815260040161162090612694565b60405180910390fd5b61163560008383611a06565b80600260008282546116479190612030565b92505081905550806000808473ffffffffffffffffffffffffffffffffffffffff1673ffffffffffffffffffffffffffffffffffffffff168152602001908152602001600020600082825401925050819055508173ffffffffffffffffffffffffffffffffffffffff16600073ffffffffffffffffffffffffffffffffffffffff167fddf252ad1be2c89b69c2b068fc378daa952ba7f163c4a11628f55a4df523b3ef836040516116f89190611ce5565b60405180910390a361170c60008383611a1e565b5050565b600073ffffffffffffffffffffffffffffffffffffffff168273ffffffffffffffffffffffffffffffffffffffff160361177f576040517f08c379a000000000000000000000000000000000000000000000000000000000815260040161177690612726565b60405180910390fd5b61178b82600083611a06565b60008060008473ffffffffffffffffffffffffffffffffffffffff1673ffffffffffffffffffffffffffffffffffffffff16815260200190815260200160002054905081811015611811576040517f08c379a0000000000000000000000000000000000000000000000000000000008152600401611808906127b8565b60405180910390fd5b8181036000808573ffffffffffffffffffffffffffffffffffffffff1673ffffffffffffffffffffffffffffffffffffffff1681526020019081526020016000208190555081600260008282540392505081905550600073ffffffffffffffffffffffffffffffffffffffff168373ffffffffffffffffffffffffffffffffffffffff167fddf252ad1be2c89b69c2b068fc378daa952ba7f163c4a11628f55a4df523b3ef846040516118c49190611ce5565b60405180910390a36118d883600084611a1e565b505050565b6000600560019054906101000a900473ffffffffffffffffffffffffffffffffffffffff16905081600560016101000a81548173ffffffffffffffffffffffffffffffffffffffff021916908373ffffffffffffffffffffffffffffffffffffffff1602179055508173ffffffffffffffffffffffffffffffffffffffff168173ffffffffffffffffffffffffffffffffffffffff167f8be0079c531659141344cd1fd0a4f28419497f9722a3daafe3b4186f6b6457e060405160405180910390a35050565b6119ab611a6c565b6001600560006101000a81548160ff0219169083151502179055507f62e78cea01bee320cd4e420270b5ea74000d11b0c9f74754ebdbfc544b05a2586119ef611006565b6040516119fc9190611df3565b60405180910390a1565b611a0e611a6c565b611a19838383611ab6565b505050565b505050565b611a2b6109dd565b611a6a576040517f08c379a0000000000000000000000000000000000000000000000000000000008152600401611a6190612824565b60405180910390fd5b565b611a746109dd565b15611ab4576040517f08c379a0000000000000000000000000000000000000000000000000000000008152600401611aab90612890565b60405180910390fd5b565b505050565b604051806040016040528060008152602001600081525090565b600081519050919050565b600082825260208201905092915050565b60005b83811015611b0f578082015181840152602081019050611af4565b60008484015250505050565b6000601f19601f8301169050919050565b6000611b3782611ad5565b611b418185611ae0565b9350611b51818560208601611af1565b611b5a81611b1b565b840191505092915050565b60006020820190508181036000830152611b7f8184611b2c565b905092915050565b600080fd5b600073ffffffffffffffffffffffffffffffffffffffff82169050919050565b6000611bb782611b8c565b9050919050565b611bc781611bac565b8114611bd257600080fd5b50565b600081359050611be481611bbe565b92915050565b6000819050919050565b611bfd81611bea565b8114611c0857600080fd5b50565b600081359050611c1a81611bf4565b92915050565b60008060408385031215611c3757611c36611b87565b5b6000611c4585828601611bd5565b9250506020611c5685828601611c0b565b9150509250929050565b60008115159050919050565b611c7581611c60565b82525050565b6000602082019050611c906000830184611c6c565b92915050565b60008060408385031215611cad57611cac611b87565b5b6000611cbb85828601611c0b565b9250506020611ccc85828601611c0b565b9150509250929050565b611cdf81611bea565b82525050565b6000602082019050611cfa6000830184611cd6565b92915050565b600080600060608486031215611d1957611d18611b87565b5b6000611d2786828701611bd5565b9350506020611d3886828701611bd5565b9250506040611d4986828701611c0b565b9150509250925092565b600060ff82169050919050565b611d6981611d53565b82525050565b6000602082019050611d846000830184611d60565b92915050565b600060208284031215611da057611d9f611b87565b5b6000611dae84828501611bd5565b91505092915050565b600060208284031215611dcd57611dcc611b87565b5b6000611ddb84828501611c0b565b91505092915050565b611ded81611bac565b82525050565b6000602082019050611e086000830184611de4565b92915050565b60008060408385031215611e2557611e24611b87565b5b6000611e3385828601611bd5565b9250506020611e4485828601611bd5565b9150509250929050565b7f4e487b7100000000000000000000000000000000000000000000000000000000600052602260045260246000fd5b60006002820490506001821680611e9557607f821691505b602082108103611ea857611ea7611e4e565b5b50919050565b7f5573657220646f6573206e6f74206861766520656e6f7567682066756e64732060008201527f746f206c6f636b207468697320616d6f756e7400000000000000000000000000602082015250565b6000611f0a603383611ae0565b9150611f1582611eae565b604082019050919050565b60006020820190508181036000830152611f3981611efd565b9050919050565b7f756e6c6f636b426c6f636b4e756d6265722068617320746f206265206772656160008201527f746572207468616e207468652063757272656e7420626c6f636b4e756d626572602082015250565b6000611f9c604083611ae0565b9150611fa782611f40565b604082019050919050565b60006020820190508181036000830152611fcb81611f8f565b9050919050565b7f4e487b7100000000000000000000000000000000000000000000000000000000600052603260045260246000fd5b7f4e487b7100000000000000000000000000000000000000000000000000000000600052601160045260246000fd5b600061203b82611bea565b915061204683611bea565b925082820190508082111561205e5761205d612001565b5b92915050565b600061206f82611bea565b91507fffffffffffffffffffffffffffffffffffffffffffffffffffffffffffffffff82036120a1576120a0612001565b5b600182019050919050565b60006120b782611bea565b91506120c283611bea565b92508282039050818111156120da576120d9612001565b5b92915050565b7f5573657220646f6573206e6f74206861766520656e6f75676820756e6c6f636b60008201527f65642062616c616e636521000000000000000000000000000000000000000000602082015250565b600061213c602b83611ae0565b9150612147826120e0565b604082019050919050565b6000602082019050818103600083015261216b8161212f565b9050919050565b7f45524332303a2064656372656173656420616c6c6f77616e63652062656c6f7760008201527f207a65726f000000000000000000000000000000000000000000000000000000602082015250565b60006121ce602583611ae0565b91506121d982612172565b604082019050919050565b600060208201905081810360008301526121fd816121c1565b9050919050565b7f4f776e61626c653a206e6577206f776e657220697320746865207a65726f206160008201527f6464726573730000000000000000000000000000000000000000000000000000602082015250565b6000612260602683611ae0565b915061226b82612204565b604082019050919050565b6000602082019050818103600083015261228f81612253565b9050919050565b7f45524332303a20617070726f76652066726f6d20746865207a65726f2061646460008201527f7265737300000000000000000000000000000000000000000000000000000000602082015250565b60006122f2602483611ae0565b91506122fd82612296565b604082019050919050565b60006020820190508181036000830152612321816122e5565b9050919050565b7f45524332303a20617070726f766520746f20746865207a65726f20616464726560008201527f7373000000000000000000000000000000000000000000000000000000000000602082015250565b6000612384602283611ae0565b915061238f82612328565b604082019050919050565b600060208201905081810360008301526123b381612377565b9050919050565b7f45524332303a20696e73756666696369656e7420616c6c6f77616e6365000000600082015250565b60006123f0601d83611ae0565b91506123fb826123ba565b602082019050919050565b6000602082019050818103600083015261241f816123e3565b9050919050565b7f45524332303a207472616e736665722066726f6d20746865207a65726f20616460008201527f6472657373000000000000000000000000000000000000000000000000000000602082015250565b6000612482602583611ae0565b915061248d82612426565b604082019050919050565b600060208201905081810360008301526124b181612475565b9050919050565b7f45524332303a207472616e7366657220746f20746865207a65726f206164647260008201527f6573730000000000000000000000000000000000000000000000000000000000602082015250565b6000612514602383611ae0565b915061251f826124b8565b604082019050919050565b6000602082019050818103600083015261254381612507565b9050919050565b7f45524332303a207472616e7366657220616d6f756e742065786365656473206260008201527f616c616e63650000000000000000000000000000000000000000000000000000602082015250565b60006125a6602683611ae0565b91506125b18261254a565b604082019050919050565b600060208201905081810360008301526125d581612599565b9050919050565b7f4f776e61626c653a2063616c6c6572206973206e6f7420746865206f776e6572600082015250565b6000612612602083611ae0565b915061261d826125dc565b602082019050919050565b6000602082019050818103600083015261264181612605565b9050919050565b7f45524332303a206d696e7420746f20746865207a65726f206164647265737300600082015250565b600061267e601f83611ae0565b915061268982612648565b602082019050919050565b600060208201905081810360008301526126ad81612671565b9050919050565b7f45524332303a206275726e2066726f6d20746865207a65726f2061646472657360008201527f7300000000000000000000000000000000000000000000000000000000000000602082015250565b6000612710602183611ae0565b915061271b826126b4565b604082019050919050565b6000602082019050818103600083015261273f81612703565b9050919050565b7f45524332303a206275726e20616d6f756e7420657863656564732062616c616e60008201527f6365000000000000000000000000000000000000000000000000000000000000602082015250565b60006127a2602283611ae0565b91506127ad82612746565b604082019050919050565b600060208201905081810360008301526127d181612795565b9050919050565b7f5061757361626c653a206e6f7420706175736564000000000000000000000000600082015250565b600061280e601483611ae0565b9150612819826127d8565b602082019050919050565b6000602082019050818103600083015261283d81612801565b9050919050565b7f5061757361626c653a2070617573656400000000000000000000000000000000600082015250565b600061287a601083611ae0565b915061288582612844565b602082019050919050565b600060208201905081810360008301526128a98161286d565b905091905056fea2646970667358221220c583cdd9d624621880aa9593e341ae4612ceafd780f2d54c2e18f6363fb235ab64736f6c63430008120033",
  "linkReferences": {},
  "deployedLinkReferences": {}
}